:02000000ED29E8
:0E000600073083120313FD00FD0B07280800CE
:1000140083120313081588140810871407100800A6
:100024008312031308158814081087100714080096
:10003400831203139F01C0309F0483161F179F1759
:1000440083122B08F000F00D7010F00D7010F00DFD
:10005400701070089F041F1403201F151F1D3428DF
:10006400000030281F101E08F100F00183161E083E
:1000740070048312AC007108AD000030AD042C088C
:08008400F0002D08F100080056
:10008C00831203130815881008148710071408002E
:10009C00831203130815881008148714071008001E
:1000AC008312031307110130A200A30187150A3034
:1000BC00FC001530FD00FD0B6128FC0B61280000D5
:1000CC00000087110A30FC001530FD00FD0B6C2878
:1000DC00FC0B6C280000000000302306031D782860
:1000EC001130220603197E28A20A0319A30A5C28E0
:0200FC000800FA
:1000FE00013083120313AB001A207008A0007108A0
:10010E00A100AB011A207008A6007108A70080306C
:10011E00F200803071067202031D97287008323C7F
:10012E00FF3003180030F2008030F00080302106DE
:10013E007002031DA4282008323CFF300318003043
:10014E00F0007208F0040319AE280A20F8282008DF
:10015E002602F1002108031C013E2702F200803026
:10016E00F000803072067002031DBF287108003C3B
:10017E000318DD2880302706F00080307002031D42
:10018E00CA28143026020318DB2846200430FB0050
:10019E00CF30FC000130FD00FD0BD328FC0BD32823
:1001AE00FB0BD328000000004E20F82880302106DB
:1001BE00F00080307002031DE62814302002031870
:1001CE00F72846200430FB00CF30FC000130FD0044
:1001DE00FD0BEF28FC0BEF28FB0BEF2800000000B7
:0401EE0012200800D3
:1001F20083120313081188100810871007100800D3
:100202008312031307150130A200A30187150A30D8
:10021200FC001530FD00FD0B0C29FC0B0C29000025
:10022200000087110A30FC001530FD00FD0B172974
:10023200FC0B17290000000000302306031D2329B0
:100242000E30220603192929A20A0319A30A072933
:020252000800A2
:10025400013083120313AB001A207008A000710848
:10026400A100AB011A207008A6007108A700803015
:10027400F200803071067202031D42297008283C86
:10028400FF3003180030F2008030F0008030210687
:100294007002031D4F292008283CFF30031800304A
:1002A400F0007208F00403195929F92072290A2070
:1002B40080302706F00080307002031D632914305B
:1002C4002602031866294E2080302106F000803073
:1002D4007002031D6F2914302002031872291220A2
:0202E400080010
:1002E600023083120313AB001A207008A4007108B1
:1002F600A50080307106F2008030013A7202031DBB
:1003060086292C30700203188A297F20C6290121EC
:10031600F9200630FB001330FC00AD30FD00FD0B6C
:100326009229FC0B9229FB0B922900000000562013
:100336001A30FB005E30FC006E30FD00FD0BA1297B
:10034600FC0BA129FB0BA129000001210630FB00B3
:100356001330FC00AD30FD00FD0BAF29FC0BAF29BF
:10036600FB0BAF290000000046201030FB0039309F
:10037600FC000D30FD00FD0BBE29FC0BBE29FB0B5E
:08038600BE2900000000080080
:10038E00831203131A08F200981CCF29181218169C
:0A039E007208F1007108F000080079
:1003A8000030831203138C1A0130F1007108F00039
:0203B80008003B
:1003BA0083160313981690308312980083168717B2
:1003CA00071383128C1EEC291A08F000E62908008C
:1003DA00073083160313850083128601831686016C
:1003EA00413083129F008730831681008030870056
:1003FA00880180309F00013099001815DD21823074
:10040A00FC00DD30FD00FD0B082AFC0B082A000069
:10041A000000D4217008013A031D162AC72170086A
:10042A00AA002A08713A031D1C2A7F20322A2A08A8
:10043A00703A031D222AF920322A2A08733A031D28
:10044A00272A332A2A08723A031D2D2A7321322AAF
:10045A002A08743A031D322A2A210E2AD421700846
:10046A00013A031D762AC7217008AA007008813A4A
:10047A00031D412A0A20762A2A08893A031D472A97
:10048A004620762A2A08843A031D4D2A1220762A03
:10049A002A08B33A031D532A4E20762A2A08863A96
:1004AA00031D592AF920762A2A08703A031D5F2A61
:1004BA00ED29762A2A08713A031D652AED29762A3A
:1004CA002A08723A031D6B2AED29762A2A08B03ABD
:1004DA00031D712A0121762A2A08B13A031D762AB8
:0604EA005620332A772A98
:02400E00092F78
:00000001FF
